S0130000456E657267794D657465722E73726563AA
S11300000C942A000C9447000C9447000C9447006D
S11300100C9447000C9447000C9447000C94470040
S11300200C9447000C9447000C9447000C94470030
S11300300C9447000C9447000C9447000C94470020
S11300400C9447000C9447000C9447000C94470010
S11300500C94470011241FBECFE5D4E0DEBFCDBF12
S113006010E0A0E6B0E0EEEEF8E002C005900D92DC
S1130070A439B107D9F720E0A4E9B0E001C01D928A
S1130080AE39B207E1F70E945F010C9475040C9439
S11300900000969A88BB979AE9EFF0E03197F1F760
S11300A000C000009798E9EFF0E03197F1F700C045
S11300B000008295807F88BB979A89EF90E0019732
S11300C0F1F700C000009798E9EFF0E03197F1F7FD
S11300D000C0000080E090E00895969888BB979A4D
S11300E0E9EFF0E03197F1F700C000009798E9EFED
S11300F0F0E03197F1F700C000008295807F88BB63
S1130100979A89EF90E00197F1F700C00000979863
S1130110E9EFF0E03197F1F700C0000080E090E0F3
S113012008950F931F93CF93FC018081882359F086
S11301308F01C0E00E944900CF5FF801EC0FF11D70
S113014080818111F7CFCF911F910F91089582E0A3
S11301500E946D0088E20E946D008CE00E946D0098
S113016081E00E946D0086E00E946D000895CF93A7
S1130170DF9300D000D0CDB7DEB790E8998390EC40
S11301809A8394E99B8394ED9C838150FE01E60F4E
S1130190F11D9081890F0E946D0081E28A95F1F72B
S11301A000000F900F900F900F90DF91CF91089562
S11301B080E487B987E886B9089527B187709927BD
S11301C0287F822B87B9369A3699FECF84B195B1B0
S11301D0089581E00E946D0083EF91E00197F1F7AB
S11301E000C000000895CF92DF92EF92FF92CF9368
S11301F0DF93CAE0D0E0C12CD12C760180E090E0FE
S11302000E94DD00092E000CAA0BBB0BC80ED91EE0
S1130210EA1EFB1E83E08A95F1F70000219771F72F
S1130220C701B6012AE030E040E050E00E941E041D
S1130230CA01B9010E94FF022EEF34ED48ED5EE3DE
S11302400E94B103DF91CF91FF90EF90DF90CF90A8
S11302500895CF92DF92EF92FF92CF93DF93CAE09B
S1130260D0E0C12CD12C760181E090E00E94DD0029
S1130270092E000CAA0BBB0BC80ED91EEA1EFB1ECE
S113028083E08A95F1F70000219771F7C701B60161
S11302902AE030E040E050E00E941E04CA01B901A7
S11302A00E94FF0225EE3FEF4FE95BE30E94B1039A
S11302B0DF91CF91FF90EF90DF90CF9008958FEF73
S11302C087BB14BA80EC81BB0E94A70061E081E087
S11302D00E94B7000E94D8000E94E9000E94F30027
S11302E00E94C902DC01CB014AE064E970E00E948B
S11302F0400461E081E00E94B70080E690E00E9443
S1130300910084E990E00E94910086E50E944900F2
S11303100E9429016B017C0120E030E040E85FE3AA
S11303200E94C40288238CF421E73DE34AE85EE39B
S1130330C701B6010E94580224E13EEA47E050E4B6
S11303400E94B1034B015C0108C0A7019601C701DB
S1130350B6010E9458024B015C01C501B4010E9420
S1130360C9026B017C014AE064E970E0C6010E94A5
S11303704004B601DD0C880B990B0E9401039B011C
S1130380AC01C501B4010E94570220E030E048EC02
S113039052E40E94B1036B017C0162E081E00E949F
S11303A0B7008BE690E00E94910084E990E00E94FF
S11303B091008EE20E944900C701B6010E94C90261
S11303C0DC01CB014AE064E970E00E94400484E966
S11303D090E00E94910081E40E9449002FEF84E3A1
S11303E09CE0215080409040E1F700C0000061E0B3
S11303F081E00E94B70086E790E00E9491000E948D
S1130400F3006B017C010E9429019B01AC01C7012F
S1130410B6010E94B1034B015C010E94C9026B0149
S11304207C014AE064E970E0C6010E94400484E96A
S113043090E00E949100B601DD0C880B990B0E949C
S113044001039B01AC01C501B4010E94570220E0E5
S113045030E048EC52E40E94B1036B017C018EE26F
S11304600E944900C701B6010E94C902DC01CB0108
S11304704AE064E970E00E94400484E990E00E944C
S1130480910080E890E00E94910062E081E00E9487
S1130490B70083E890E00E9491002FEF84E39CE092
S11304A0215080409040E1F700C0000015CF505823
S11304B0BB27AA270E946F020C9477030E9469034A
S11304C038F00E94700320F039F49F3F19F426F4A9
S11304D00C9466030EF4E095E7FB0C946003E92F9B
S11304E00E94880358F3BA176207730784079507B5
S11304F020F079F4A6F50C94AA030EF4E0950B2EE3
S1130500BA2FA02D0B01B90190010C01CA01A00161
S11305101124FF27591B99F0593F50F4503E68F1BC
S11305201A16F040A22F232F342F4427585FF3CFFD
S1130530469537952795A795F0405395C9F77EF4CE
S11305401F16BA0B620B730B840BBAF09150A1F017
S1130550FF0FBB1F661F771F881FC2F70EC0BA0F9D
S1130560621F731F841F48F4879577956795B79525
S1130570F7959E3F08F0B0CF9395880F08F0992720
S1130580EE0F9795879508950E943C0308F481E047
S113059008950E94D0026894B1110C94AB0308959D
S11305A00E94900388F09F5798F0B92F9927B7516C
S11305B0B0F0E1F0660F771F881F991F1AF0BA9503
S11305C0C9F714C0B13091F00E94AA03B1E00895B4
S11305D00C94AA03672F782F8827B85F39F0B93FA6
S11305E0CCF3869577956795B395D9F73EF49095B6
S11305F08095709561957F4F8F4F9F4F0895E89434
S113060009C097FB3EF490958095709561957F4F56
S11306108F4F9F4F9923A9F0F92F96E9BB27939504
S1130620F695879577956795B795F111F8CFFAF414
S1130630BB0F11F460FF1BC06F5F7F4F8F4F9F4F45
S113064016C0882311F096E911C0772321F09EE8A3
S1130650872F762F05C0662371F096E8862F70E009
S113066060E02AF09A95660F771F881FDAF7880FE3
S11306709695879597F90895990F0008550FAA0B39
S1130680E0E8FEEF16161706E807F907C0F01216A1
S11306901306E407F50798F0621B730B840B950BA4
S11306A039F40A2661F0232B242B252B21F40895F9
S11306B00A2609F4A140A6958FEF811D811D089596
S11306C097F99F6780E870E060E008959FEF80EC01
S11306D0089500240A9416161706180609060895A4
S11306E000240A9412161306140605060895092E0A
S11306F00394000C11F4882352F0BB0F40F4BF2B79
S113070011F460FF04C06F5F7F4F8F4F9F4F0895B8
S113071057FD9058440F551F59F05F3F71F04795AE
S1130720880F97FB991F61F09F3F79F08795089593
S1130730121613061406551FF2CF4695F1DF08C0B2
S1130740161617061806991FF1CF869571056105CF
S113075008940895E894BB2766277727CB0197F977
S113076008950E94C4030C9477030E94690338F02F
S11307700E94700320F0952311F00C9460030C94F4
S1130780660311240C94AB030E94880370F3959FB5
S1130790C1F3950F50E0551F629FF001729FBB2774
S11307A0F00DB11D639FAA27F00DB11DAA1F649F10
S11307B06627B00DA11D661F829F2227B00DA11DC3
S11307C0621F739FB00DA11D621F839FA00D611D49
S11307D0221F749F3327A00D611D231F849F600D6A
S11307E0211D822F762F6A2F11249F5750409AF093
S11307F0F1F088234AF0EE0FFF1FBB1F661F771F1F
S1130800881F91505040A9F79E3F510580F00C94E9
S113081060030C94AB035F3FE4F3983ED4F38695F6
S113082077956795B795F795E7959F5FC1F7FE2B89
S1130830880F911D9695879597F90895A1E21A2E30
S1130840AA1BBB1BFD010DC0AA1FBB1FEE1FFF1F70
S1130850A217B307E407F50720F0A21BB30BE40BC0
S1130860F50B661F771F881F991F1A9469F7609507
S11308707095809590959B01AC01BD01CF010895C1
S1130880BB274A3031F4992322F4BDE29095819537
S11308909F4F0C944C04BB27FB015527AA27880FB4
S11308A0991FAA1FA41710F0A41B83955051B9F7E0
S11308B0A05DAA3308F0A95DA193009779F7B1115F
S11308C0B1931192CB010C946504DC01FC01672FF8
S11308D071917723E1F7329704C07C916D93708313
S11108E06291AE17BF07C8F30895F894FFCFD6
S11308EE566F6C74616765203D20004375727265A6
S11308FE6E74203D2000506F77657220203D2000DD
S113090E572000467265712020203D203530487AEC
S107091E2020200071
S9030000FC
